Component: ARM Compiler 5.05 update 1 (build 106) Tool: armlink [4d0efa]

==============================================================================

Section Cross References

    startup_stm32f407xx.o(RESET) refers to startup_stm32f407xx.o(STACK) for __initial_sp
    startup_stm32f407xx.o(RESET) refers to startup_stm32f407xx.o(.text) for Reset_Handler
    startup_stm32f407xx.o(RESET) refers to stm32f4xx_it.o(i.NMI_Handler) for NMI_Handler
    startup_stm32f407xx.o(RESET) refers to stm32f4xx_it.o(i.HardFault_Handler) for HardFault_Handler
    startup_stm32f407xx.o(RESET) refers to stm32f4xx_it.o(i.MemManage_Handler) for MemManage_Handler
    startup_stm32f407xx.o(RESET) refers to stm32f4xx_it.o(i.BusFault_Handler) for BusFault_Handler
    startup_stm32f407xx.o(RESET) refers to stm32f4xx_it.o(i.UsageFault_Handler) for UsageFault_Handler
    startup_stm32f407xx.o(RESET) refers to stm32f4xx_it.o(i.SVC_Handler) for SVC_Handler
    startup_stm32f407xx.o(RESET) refers to stm32f4xx_it.o(i.DebugMon_Handler) for DebugMon_Handler
    startup_stm32f407xx.o(RESET) refers to stm32f4xx_it.o(i.PendSV_Handler) for PendSV_Handler
    startup_stm32f407xx.o(RESET) refers to stm32f4xx_it.o(i.SysTick_Handler) for SysTick_Handler
    startup_stm32f407xx.o(RESET) refers to stm32f4xx_it.o(i.DMA1_Stream5_IRQHandler) for DMA1_Stream5_IRQHandler
    startup_stm32f407xx.o(RESET) refers to stm32f4xx_it.o(i.DMA1_Stream6_IRQHandler) for DMA1_Stream6_IRQHandler
    startup_stm32f407xx.o(RESET) refers to stm32f4xx_it.o(i.ADC_IRQHandler) for ADC_IRQHandler
    startup_stm32f407xx.o(RESET) refers to stm32f4xx_it.o(i.USART2_IRQHandler) for USART2_IRQHandler
    startup_stm32f407xx.o(RESET) refers to stm32f4xx_it.o(i.TIM6_DAC_IRQHandler) for TIM6_DAC_IRQHandler
    startup_stm32f407xx.o(RESET) refers to stm32f4xx_it.o(i.TIM7_IRQHandler) for TIM7_IRQHandler
    startup_stm32f407xx.o(.text) refers to system_stm32f4xx.o(i.SystemInit) for SystemInit
==============================================================================

Removing Unused input sections from the image.

    Removing startup_stm32f407xx.o(HEAP), (512 bytes).
    Removing ai_control.o(.rev16_text), (4 bytes).
    Removing ai_control.o(.revsh_text), (4 bytes).
    Removing ai_control.o(.rrx_text), (6 bytes).
    Removing dma_usart_idle.o(.rev16_text), (4 bytes).
    Removing dma_usart_idle.o(.revsh_text), (4 bytes).
    Removing dma_usart_idle.o(.rrx_text), (6 bytes).
    Removing modbus.o(.rev16_text), (4 bytes).
    Removing modbus.o(.revsh_text), (4 bytes).
    Removing modbus.o(.rrx_text), (6 bytes).
    Removing main.o(.rev16_text), (4 bytes).
    Removing main.o(.revsh_text), (4 bytes).
    Removing main.o(.rrx_text), (6 bytes).
    Removing stm32f4xx_it.o(.rev16_text), (4 bytes).
    Removing stm32f4xx_it.o(.revsh_text), (4 bytes).
    Removing stm32f4xx_it.o(.rrx_text), (6 bytes).
    Removing stm32f4xx_hal_msp.o(.rev16_text), (4 bytes).
    Removing stm32f4xx_hal_msp.o(.revsh_text), (4 bytes).
==============================================================================

Image Symbol Table

    Local Symbols

    Symbol Name                              Value     Ov Type        Size  Object(Section)

    ..//Src/system_stm32f4xx.c               0x00000000   Number         0  system_stm32f4xx.o ABSOLUTE
    ../Drivers/STM32F4xx_HAL_Driver/Src/stm32f4xx_hal.c 0x00000000   Number         0  stm32f4xx_hal.o ABSOLUTE
    ../Drivers/STM32F4xx_HAL_Driver/Src/stm32f4xx_hal_adc.c 0x00000000   Number         0  stm32f4xx_hal_adc.o ABSOLUTE
    ../Drivers/STM32F4xx_HAL_Driver/Src/stm32f4xx_hal_adc_ex.c 0x00000000   Number         0  stm32f4xx_hal_adc_ex.o ABSOLUTE
    ../Drivers/STM32F4xx_HAL_Driver/Src/stm32f4xx_hal_cortex.c 0x00000000   Number         0  stm32f4xx_hal_cortex.o ABSOLUTE
    ../Drivers/STM32F4xx_HAL_Driver/Src/stm32f4xx_hal_dma.c 0x00000000   Number         0  stm32f4xx_hal_dma.o ABSOLUTE
    ../Drivers/STM32F4xx_HAL_Driver/Src/stm32f4xx_hal_dma_ex.c 0x00000000   Number         0  stm32f4xx_hal_dma_ex.o ABSOLUTE
    ../Drivers/STM32F4xx_HAL_Driver/Src/stm32f4xx_hal_flash.c 0x00000000   Number         0  stm32f4xx_hal_flash.o ABSOLUTE
    ../Drivers/STM32F4xx_HAL_Driver/Src/stm32f4xx_hal_flash_ex.c 0x00000000   Number         0  stm32f4xx_hal_flash_ex.o ABSOLUTE
    ../Drivers/STM32F4xx_HAL_Driver/Src/stm32f4xx_hal_flash_ramfunc.c 0x00000000   Number         0  stm32f4xx_hal_flash_ramfunc.o ABSOLUTE
    ../Drivers/STM32F4xx_HAL_Driver/Src/stm32f4xx_hal_gpio.c 0x00000000   Number         0  stm32f4xx_hal_gpio.o ABSOLUTE
    ../Drivers/STM32F4xx_HAL_Driver/Src/stm32f4xx_hal_pwr.c 0x00000000   Number         0  stm32f4xx_hal_pwr.o ABSOLUTE
    ../Drivers/STM32F4xx_HAL_Driver/Src/stm32f4xx_hal_pwr_ex.c 0x00000000   Number         0  stm32f4xx_hal_pwr_ex.o ABSOLUTE
    ../Drivers/STM32F4xx_HAL_Driver/Src/stm32f4xx_hal_rcc.c 0x00000000   Number         0  stm32f4xx_hal_rcc.o ABSOLUTE
    ../Drivers/STM32F4xx_HAL_Driver/Src/stm32f4xx_hal_rcc_ex.c 0x00000000   Number         0  stm32f4xx_hal_rcc_ex.o ABSOLUTE
    ../Drivers/STM32F4xx_HAL_Driver/Src/stm32f4xx_hal_tim.c 0x00000000   Number         0  stm32f4xx_hal_tim.o ABSOLUTE
    ../Drivers/STM32F4xx_HAL_Driver/Src/stm32f4xx_hal_tim_ex.c 0x00000000   Number         0  stm32f4xx_hal_tim_ex.o ABSOLUTE
    ../Drivers/STM32F4xx_HAL_Driver/Src/stm32f4xx_hal_uart.c 0x00000000   Number         0  stm32f4xx_hal_uart.o ABSOLUTE
    ../Src/main.c                            0x00000000   Number         0  main.o ABSOLUTE
    ../Src/stm32f4xx_hal_msp.c               0x00000000   Number         0  stm32f4xx_hal_msp.o ABSOLUTE
    ../Src/stm32f4xx_it.c                    0x00000000   Number         0  stm32f4xx_it.o ABSOLUTE
    ../clib/../cmprslib/lz77c.c              0x00000000   Number         0  __dclz77c.o ABSOLUTE
    ../clib/microlib/division.c              0x00000000   Number         0  uldiv.o ABSOLUTE
    ../clib/microlib/init/entry.s            0x00000000   Number         0  entry.o ABSOLUTE
    ../clib/microlib/init/entry.s            0x00000000   Number         0  entry10a.o ABSOLUTE
    ../clib/microlib/init/entry.s            0x00000000   Number         0  entry10b.o ABSOLUTE
    ../clib/microlib/init/entry.s            0x00000000   Number         0  entry11a.o ABSOLUTE
    ../clib/microlib/init/entry.s            0x00000000   Number         0  entry11b.o ABSOLUTE
    ../clib/microlib/init/entry.s            0x00000000   Number         0  entry2.o ABSOLUTE
    ../clib/microlib/init/entry.s            0x00000000   Number         0  entry8a.o ABSOLUTE
    ../clib/microlib/init/entry.s            0x00000000   Number         0  entry5.o ABSOLUTE
    ../clib/microlib/init/entry.s            0x00000000   Number         0  entry7a.o ABSOLUTE
    ../clib/microlib/init/entry.s            0x00000000   Number         0  entry9a.o ABSOLUTE
    ../clib/microlib/init/entry.s            0x00000000   Number         0  entry7b.o ABSOLUTE
    ../clib/microlib/init/entry.s            0x00000000   Number         0  entry9b.o ABSOLUTE
    ../clib/microlib/init/entry.s            0x00000000   Number         0  entry8b.o ABSOLUTE
    ../clib/microlib/longlong.c              0x00000000   Number         0  llushr.o ABSOLUTE
    ../clib/microlib/longlong.c              0x00000000   Number         0  llshl.o ABSOLUTE
    ../clib/microlib/string/memcpy.c         0x00000000   Number         0  memcpyb.o ABSOLUTE
    ../clib/microlib/string/memcpy.c         0x00000000   Number         0  memcpya.o ABSOLUTE
    ../clib/microlib/string/memset.c         0x00000000   Number         0  memseta.o ABSOLUTE
    ..\Drivers\STM32F4xx_HAL_Driver\Src\stm32f4xx_hal.c 0x00000000   Number         0  stm32f4xx_hal.o ABSOLUTE
    ..\Drivers\STM32F4xx_HAL_Driver\Src\stm32f4xx_hal_adc.c 0x00000000   Number         0  stm32f4xx_hal_adc.o ABSOLUTE
    ..\Drivers\STM32F4xx_HAL_Driver\Src\stm32f4xx_hal_adc_ex.c 0x00000000   Number         0  stm32f4xx_hal_adc_ex.o ABSOLUTE
    ..\Drivers\STM32F4xx_HAL_Driver\Src\stm32f4xx_hal_cortex.c 0x00000000   Number         0  stm32f4xx_hal_cortex.o ABSOLUTE
    ..\Drivers\STM32F4xx_HAL_Driver\Src\stm32f4xx_hal_dma.c 0x00000000   Number         0  stm32f4xx_hal_dma.o ABSOLUTE
    ..\Drivers\STM32F4xx_HAL_Driver\Src\stm32f4xx_hal_dma_ex.c 0x00000000   Number         0  stm32f4xx_hal_dma_ex.o ABSOLUTE
    ..\Drivers\STM32F4xx_HAL_Driver\Src\stm32f4xx_hal_flash.c 0x00000000   Number         0  stm32f4xx_hal_flash.o ABSOLUTE
    ..\Drivers\STM32F4xx_HAL_Driver\Src\stm32f4xx_hal_flash_ex.c 0x00000000   Number         0  stm32f4xx_hal_flash_ex.o ABSOLUTE
    ..\Drivers\STM32F4xx_HAL_Driver\Src\stm32f4xx_hal_flash_ramfunc.c 0x00000000   Number         0  stm32f4xx_hal_flash_ramfunc.o ABSOLUTE
    ..\Drivers\STM32F4xx_HAL_Driver\Src\stm32f4xx_hal_gpio.c 0x00000000   Number         0  stm32f4xx_hal_gpio.o ABSOLUTE
    ..\Drivers\STM32F4xx_HAL_Driver\Src\stm32f4xx_hal_pwr.c 0x00000000   Number         0  stm32f4xx_hal_pwr.o ABSOLUTE
    ..\Drivers\STM32F4xx_HAL_Driver\Src\stm32f4xx_hal_pwr_ex.c 0x00000000   Number         0  stm32f4xx_hal_pwr_ex.o ABSOLUTE
    ..\Drivers\STM32F4xx_HAL_Driver\Src\stm32f4xx_hal_rcc.c 0x00000000   Number         0  stm32f4xx_hal_rcc.o ABSOLUTE
    ..\Drivers\STM32F4xx_HAL_Driver\Src\stm32f4xx_hal_rcc_ex.c 0x00000000   Number         0  stm32f4xx_hal_rcc_ex.o ABSOLUTE
    ..\Drivers\STM32F4xx_HAL_Driver\Src\stm32f4xx_hal_tim.c 0x00000000   Number         0  stm32f4xx_hal_tim.o ABSOLUTE
    ..\Drivers\STM32F4xx_HAL_Driver\Src\stm32f4xx_hal_tim_ex.c 0x00000000   Number         0  stm32f4xx_hal_tim_ex.o ABSOLUTE
    ..\Drivers\STM32F4xx_HAL_Driver\Src\stm32f4xx_hal_uart.c 0x00000000   Number         0  stm32f4xx_hal_uart.o ABSOLUTE
    ..\Src\ai_control.c                      0x00000000   Number         0  ai_control.o ABSOLUTE
    ..\Src\dma_usart_idle.c                  0x00000000   Number         0  dma_usart_idle.o ABSOLUTE
    ..\Src\main.c                            0x00000000   Number         0  main.o ABSOLUTE
    ..\Src\modbus.c                          0x00000000   Number         0  modbus.o ABSOLUTE
    ..\Src\stm32f4xx_hal_msp.c               0x00000000   Number         0  stm32f4xx_hal_msp.o ABSOLUTE
    ..\Src\stm32f4xx_it.c                    0x00000000   Number         0  stm32f4xx_it.o ABSOLUTE
    ..\\Src\\ai_control.c                    0x00000000   Number         0  ai_control.o ABSOLUTE
    ..\\Src\\dma_usart_idle.c                0x00000000   Number         0  dma_usart_idle.o ABSOLUTE
    ..\\Src\\modbus.c                        0x00000000   Number         0  modbus.o ABSOLUTE
    ..\\Src\system_stm32f4xx.c               0x00000000   Number         0  system_stm32f4xx.o ABSOLUTE
    dc.s                                     0x00000000   Number         0  dc.o ABSOLUTE
    handlers.s                               0x00000000   Number         0  handlers.o ABSOLUTE
    init.s                                   0x00000000   Number         0  init.o ABSOLUTE
    startup_stm32f407xx.s                    0x00000000   Number         0  startup_stm32f407xx.o ABSOLUTE
    RESET                                    0x08000000   Section      392  startup_stm32f407xx.o(RESET)
    .ARM.Collect$$$$00000000                 0x08000188   Section        0  entry.o(.ARM.Collect$$$$00000000)
    .ARM.Collect$$$$00000001                 0x08000188   Section        4  entry2.o(.ARM.Collect$$$$00000001)
    .ARM.Collect$$$$00000004                 0x0800018c   Section        4  entry5.o(.ARM.Collect$$$$00000004)
    .ARM.Collect$$$$00000008                 0x08000190   Section        0  entry7b.o(.ARM.Collect$$$$00000008)
    .ARM.Collect$$$$0000000A                 0x08000190   Section        0  entry8b.o(.ARM.Collect$$$$0000000A)
    .ARM.Collect$$$$0000000B                 0x08000190   Section        8  entry9a.o(.ARM.Collect$$$$0000000B)
    .ARM.Collect$$$$0000000D                 0x08000198   Section        0  entry10a.o(.ARM.Collect$$$$0000000D)
    .ARM.Collect$$$$0000000F                 0x08000198   Section        0  entry11a.o(.ARM.Collect$$$$0000000F)
    .ARM.Collect$$$$00002712                 0x08000198   Section        4  entry2.o(.ARM.Collect$$$$00002712)
    __lit__00000000                          0x08000198   Data           4  entry2.o(.ARM.Collect$$$$00002712)
    .text                                    0x0800019c   Section       36  startup_stm32f407xx.o(.text)
    $v0                                      0x0800019c   Number         0  startup_stm32f407xx.o(.text)
    .text                                    0x080001c0   Section        0  uldiv.o(.text)
    .text                                    0x08000222   Section        0  memcpya.o(.text)
    .text                                    0x08000246   Section        0  memseta.o(.text)
    .text                                    0x0800026a   Section        0  llshl.o(.text)
    .text                                    0x08000288   Section        0  llushr.o(.text)
    .text                                    0x080002a8   Section       36  init.o(.text)
    .text                                    0x080002cc   Section        0  __dclz77c.o(.text)
    i.ADC_IRQHandler                         0x0800032c   Section        0  stm32f4xx_it.o(i.ADC_IRQHandler)
    i.ADC_Init                               0x08000340   Section        0  stm32f4xx_hal_adc.o(i.ADC_Init)
    ADC_Init                                 0x08000341   Thumb Code   280  stm32f4xx_hal_adc.o(i.ADC_Init)
    i.BusFault_Handler                       0x08000464   Section        0  stm32f4xx_it.o(i.BusFault_Handler)
    i.CRC16                                  0x08000468   Section        0  modbus.o(i.CRC16)
    i.DMA1_Stream5_IRQHandler                0x08000494   Section        0  stm32f4xx_it.o(i.DMA1_Stream5_IRQHandler)
    i.DMA1_Stream6_IRQHandler                0x080004a0   Section        0  stm32f4xx_it.o(i.DMA1_Stream6_IRQHandler)
    i.DMA_CalcBaseAndBitshift                0x080004b4   Section        0  stm32f4xx_hal_dma.o(i.DMA_CalcBaseAndBitshift)
    DMA_CalcBaseAndBitshift                  0x080004b5   Thumb Code    34  stm32f4xx_hal_dma.o(i.DMA_CalcBaseAndBitshift)
    i.DMA_CheckFifoParam                     0x080004dc   Section        0  stm32f4xx_hal_dma.o(i.DMA_CheckFifoParam)
    DMA_CheckFifoParam                       0x080004dd   Thumb Code    84  stm32f4xx_hal_dma.o(i.DMA_CheckFifoParam)
    i.DMA_IrqHandler                         0x08000530   Section        0  dma_usart_idle.o(i.DMA_IrqHandler)
    i.DMA_SetConfig                          0x08000598   Section        0  stm32f4xx_hal_dma.o(i.DMA_SetConfig)
    DMA_SetConfig                            0x08000599   Thumb Code    40  stm32f4xx_hal_dma.o(i.DMA_SetConfig)
    i.DebugMon_Handler                       0x080005c0   Section        0  stm32f4xx_it.o(i.DebugMon_Handler)
    i.FLASH_Erase_Sector                     0x080005c4   Section        0  stm32f4xx_hal_flash_ex.o(i.FLASH_Erase_Sector)
    i.FLASH_Program_Byte                     0x08000614   Section        0  stm32f4xx_hal_flash.o(i.FLASH_Program_Byte)
    FLASH_Program_Byte                       0x08000615   Thumb Code    26  stm32f4xx_hal_flash.o(i.FLASH_Program_Byte)
    i.FLASH_Program_DoubleWord               0x08000634   Section        0  stm32f4xx_hal_flash.o(i.FLASH_Program_DoubleWord)
    FLASH_Program_DoubleWord                 0x08000635   Thumb Code    34  stm32f4xx_hal_flash.o(i.FLASH_Program_DoubleWord)
    i.FLASH_Program_HalfWord                 0x0800065c   Section        0  stm32f4xx_hal_flash.o(i.FLASH_Program_HalfWord)
    FLASH_Program_HalfWord                   0x0800065d   Thumb Code    30  stm32f4xx_hal_flash.o(i.FLASH_Program_HalfWord)
    i.FLASH_Program_Word                     0x08000680   Section        0  stm32f4xx_hal_flash.o(i.FLASH_Program_Word)
    FLASH_Program_Word                       0x08000681   Thumb Code    30  stm32f4xx_hal_flash.o(i.FLASH_Program_Word)
    i.FLASH_SetErrorCode                     0x080006a4   Section        0  stm32f4xx_hal_flash.o(i.FLASH_SetErrorCode)
    FLASH_SetErrorCode                       0x080006a5   Thumb Code    96  stm32f4xx_hal_flash.o(i.FLASH_SetErrorCode)
    i.FLASH_WaitForLastOperation             0x0800070c   Section        0  stm32f4xx_hal_flash.o(i.FLASH_WaitForLastOperation)
    i.HAL_ADCEx_InjectedConvCpltCallback     0x0800075c   Section        0  stm32f4xx_hal_adc_ex.o(i.HAL_ADCEx_InjectedConvCpltCallback)
    i.HAL_ADC_ConfigChannel                  0x08000760   Section        0  stm32f4xx_hal_adc.o(i.HAL_ADC_ConfigChannel)
    i.HAL_ADC_ConvCpltCallback               0x080008ac   Section        0  stm32f4xx_hal_adc.o(i.HAL_ADC_ConvCpltCallback)
    i.HAL_ADC_ErrorCallback                  0x080008ae   Section        0  stm32f4xx_hal_adc.o(i.HAL_ADC_ErrorCallback)
    i.HAL_ADC_GetValue                       0x080008b0   Section        0  stm32f4xx_hal_adc.o(i.HAL_ADC_GetValue)
    i.HAL_ADC_IRQHandler                     0x080008b6   Section        0  stm32f4xx_hal_adc.o(i.HAL_ADC_IRQHandler)
    i.HAL_ADC_Init                           0x080009f2   Section        0  stm32f4xx_hal_adc.o(i.HAL_ADC_Init)
    i.HAL_ADC_LevelOutOfWindowCallback       0x08000a46   Section        0  stm32f4xx_hal_adc.o(i.HAL_ADC_LevelOutOfWindowCallback)
    i.HAL_ADC_MspInit                        0x08000a48   Section        0  stm32f4xx_hal_msp.o(i.HAL_ADC_MspInit)
    i.HAL_ADC_Start_IT                       0x08000a9c   Section        0  stm32f4xx_hal_adc.o(i.HAL_ADC_Start_IT)
    i.HAL_DMA_Abort_IT                       0x08000b64   Section        0  stm32f4xx_hal_dma.o(i.HAL_DMA_Abort_IT)
    i.HAL_DMA_IRQHandler                     0x08000b88   Section        0  stm32f4xx_hal_dma.o(i.HAL_DMA_IRQHandler)
    i.HAL_DMA_Init                           0x08000d28   Section        0  stm32f4xx_hal_dma.o(i.HAL_DMA_Init)
    i.HAL_DMA_Start_IT                       0x08000dfc   Section        0  stm32f4xx_hal_dma.o(i.HAL_DMA_Start_IT)
    i.HAL_FLASH_Lock                         0x08000e74   Section        0  stm32f4xx_hal_flash.o(i.HAL_FLASH_Lock)
    i.HAL_FLASH_Program                      0x08000e88   Section        0  stm32f4xx_hal_flash.o(i.HAL_FLASH_Program)
    i.HAL_FLASH_Unlock                       0x08000f04   Section        0  stm32f4xx_hal_flash.o(i.HAL_FLASH_Unlock)
    i.HAL_GPIO_Init                          0x08000f30   Section        0  stm32f4xx_hal_gpio.o(i.HAL_GPIO_Init)
    i.HAL_GPIO_WritePin                      0x080010e0   Section        0  stm32f4xx_hal_gpio.o(i.HAL_GPIO_WritePin)
    i.HAL_GetTick                            0x080010ec   Section        0  stm32f4xx_hal.o(i.HAL_GetTick)
    i.HAL_IncTick                            0x080010f8   Section        0  stm32f4xx_hal.o(i.HAL_IncTick)
    i.HAL_Init                               0x08001108   Section        0  stm32f4xx_hal.o(i.HAL_Init)
    i.HAL_InitTick                           0x0800113c   Section        0  stm32f4xx_hal.o(i.HAL_InitTick)
    i.HAL_MspInit                            0x0800117c   Section        0  stm32f4xx_hal_msp.o(i.HAL_MspInit)
    i.HAL_NVIC_EnableIRQ                     0x08001200   Section        0  stm32f4xx_hal_cortex.o(i.HAL_NVIC_EnableIRQ)
    i.HAL_NVIC_SetPriority                   0x08001218   Section        0  stm32f4xx_hal_cortex.o(i.HAL_NVIC_SetPriority)
    i.HAL_NVIC_SetPriorityGrouping           0x08001258   Section        0  stm32f4xx_hal_cortex.o(i.HAL_NVIC_SetPriorityGrouping)
    i.HAL_RCC_ClockConfig                    0x0800127c   Section        0  stm32f4xx_hal_rcc.o(i.HAL_RCC_ClockConfig)
    i.HAL_RCC_GetHCLKFreq                    0x080013ac   Section        0  stm32f4xx_hal_rcc.o(i.HAL_RCC_GetHCLKFreq)
    i.HAL_RCC_GetPCLK1Freq                   0x080013b8   Section        0  stm32f4xx_hal_rcc.o(i.HAL_RCC_GetPCLK1Freq)
    i.HAL_RCC_GetPCLK2Freq                   0x080013d8   Section        0  stm32f4xx_hal_rcc.o(i.HAL_RCC_GetPCLK2Freq)
    i.HAL_RCC_GetSysClockFreq                0x080013f8   Section        0  stm32f4xx_hal_rcc.o(i.HAL_RCC_GetSysClockFreq)
    i.HAL_RCC_OscConfig                      0x08001458   Section        0  stm32f4xx_hal_rcc.o(i.HAL_RCC_OscConfig)
    i.HAL_SYSTICK_CLKSourceConfig            0x08001774   Section        0  stm32f4xx_hal_cortex.o(i.HAL_SYSTICK_CLKSourceConfig)
    i.HAL_SYSTICK_Callback                   0x0800178c   Section        0  stm32f4xx_hal_cortex.o(i.HAL_SYSTICK_Callback)
    i.HAL_SYSTICK_Config                     0x0800178e   Section        0  stm32f4xx_hal_cortex.o(i.HAL_SYSTICK_Config)
    i.HAL_SYSTICK_IRQHandler                 0x080017b6   Section        0  stm32f4xx_hal_cortex.o(i.HAL_SYSTICK_IRQHandler)
    i.HAL_TIMEx_BreakCallback                0x080017be   Section        0  stm32f4xx_hal_tim_ex.o(i.HAL_TIMEx_BreakCallback)
    i.HAL_TIMEx_CommutationCallback          0x080017c0   Section        0  stm32f4xx_hal_tim_ex.o(i.HAL_TIMEx_CommutationCallback)
    i.HAL_TIMEx_MasterConfigSynchronization  0x080017c2   Section        0  stm32f4xx_hal_tim_ex.o(i.HAL_TIMEx_MasterConfigSynchronization)
    i.HAL_TIM_Base_Init                      0x08001812   Section        0  stm32f4xx_hal_tim.o(i.HAL_TIM_Base_Init)
    i.HAL_TIM_Base_MspInit                   0x08001848   Section        0  stm32f4xx_hal_msp.o(i.HAL_TIM_Base_MspInit)
    i.HAL_TIM_Base_Start_IT                  0x080018ac   Section        0  stm32f4xx_hal_tim.o(i.HAL_TIM_Base_Start_IT)
    i.HAL_TIM_Base_Stop_IT                   0x080018c4   Section        0  stm32f4xx_hal_tim.o(i.HAL_TIM_Base_Stop_IT)
    i.HAL_TIM_IC_CaptureCallback             0x080018ee   Section        0  stm32f4xx_hal_tim.o(i.HAL_TIM_IC_CaptureCallback)
    i.HAL_TIM_IRQHandler                     0x080018f0   Section        0  stm32f4xx_hal_tim.o(i.HAL_TIM_IRQHandler)
    i.HAL_TIM_OC_DelayElapsedCallback        0x08001a56   Section        0  stm32f4xx_hal_tim.o(i.HAL_TIM_OC_DelayElapsedCallback)
    i.HAL_TIM_PWM_PulseFinishedCallback      0x08001a58   Section        0  stm32f4xx_hal_tim.o(i.HAL_TIM_PWM_PulseFinishedCallback)
    i.HAL_TIM_PeriodElapsedCallback          0x08001a5a   Section        0  stm32f4xx_hal_tim.o(i.HAL_TIM_PeriodElapsedCallback)
    i.HAL_TIM_TriggerCallback                0x08001a5c   Section        0  stm32f4xx_hal_tim.o(i.HAL_TIM_TriggerCallback)
    i.HAL_UART_ErrorCallback                 0x08001a5e   Section        0  stm32f4xx_hal_uart.o(i.HAL_UART_ErrorCallback)
    i.HAL_UART_IRQHandler                    0x08001a60   Section        0  stm32f4xx_hal_uart.o(i.HAL_UART_IRQHandler)
    i.HAL_UART_Init                          0x08001b70   Section        0  stm32f4xx_hal_uart.o(i.HAL_UART_Init)
    i.HAL_UART_MspInit                       0x08001bd4   Section        0  stm32f4xx_hal_msp.o(i.HAL_UART_MspInit)
    i.HAL_UART_Receive_DMA                   0x08001cc4   Section        0  stm32f4xx_hal_uart.o(i.HAL_UART_Receive_DMA)
    i.HAL_UART_RxCpltCallback                0x08001d5c   Section        0  stm32f4xx_hal_uart.o(i.HAL_UART_RxCpltCallback)
    i.HAL_UART_RxHalfCpltCallback            0x08001d5e   Section        0  stm32f4xx_hal_uart.o(i.HAL_UART_RxHalfCpltCallback)
    i.HAL_UART_Transmit_DMA                  0x08001d60   Section        0  stm32f4xx_hal_uart.o(i.HAL_UART_Transmit_DMA)
    i.HAL_UART_TxCpltCallback                0x08001de0   Section        0  stm32f4xx_hal_uart.o(i.HAL_UART_TxCpltCallback)
    i.HAL_UART_TxHalfCpltCallback            0x08001de2   Section        0  stm32f4xx_hal_uart.o(i.HAL_UART_TxHalfCpltCallback)
    i.HardFault_Handler                      0x08001de4   Section        0  stm32f4xx_it.o(i.HardFault_Handler)
    i.MX_ADC1_Init                           0x08001de8   Section        0  main.o(i.MX_ADC1_Init)
    MX_ADC1_Init                             0x08001de9   Thumb Code    68  main.o(i.MX_ADC1_Init)
    i.MX_GPIO_Init                           0x08001e38   Section        0  main.o(i.MX_GPIO_Init)
    MX_GPIO_Init                             0x08001e39   Thumb Code   168  main.o(i.MX_GPIO_Init)
    i.MemManage_Handler                      0x08001eec   Section        0  stm32f4xx_it.o(i.MemManage_Handler)
    i.NMI_Handler                            0x08001eee   Section        0  stm32f4xx_it.o(i.NMI_Handler)
    i.NVIC_SetPriority                       0x08001ef0   Section        0  stm32f4xx_hal_cortex.o(i.NVIC_SetPriority)
    NVIC_SetPriority                         0x08001ef1   Thumb Code    32  stm32f4xx_hal_cortex.o(i.NVIC_SetPriority)
    i.PendSV_Handler                         0x08001f10   Section        0  stm32f4xx_it.o(i.PendSV_Handler)
    i.SVC_Handler                            0x08001f12   Section        0  stm32f4xx_it.o(i.SVC_Handler)
    i.SysTick_Handler                        0x08001f14   Section        0  stm32f4xx_it.o(i.SysTick_Handler)
    i.SystemClock_Config                     0x08001f24   Section        0  main.o(i.SystemClock_Config)
    i.SystemInit                             0x08001fbc   Section        0  system_stm32f4xx.o(i.SystemInit)
    i.TIM6_DAC_IRQHandler                    0x08002010   Section        0  stm32f4xx_it.o(i.TIM6_DAC_IRQHandler)
    i.TIM7_IRQHandler                        0x08002024   Section        0  stm32f4xx_it.o(i.TIM7_IRQHandler)
    i.TIM_Base_SetConfig                     0x08002038   Section        0  stm32f4xx_hal_tim.o(i.TIM_Base_SetConfig)
    i.UART_DMAAbortOnError                   0x080020f8   Section        0  stm32f4xx_hal_uart.o(i.UART_DMAAbortOnError)
    UART_DMAAbortOnError                     0x080020f9   Thumb Code    16  stm32f4xx_hal_uart.o(i.UART_DMAAbortOnError)
    i.UART_DMAError                          0x08002108   Section        0  stm32f4xx_hal_uart.o(i.UART_DMAError)
    UART_DMAError                            0x08002109   Thumb Code    74  stm32f4xx_hal_uart.o(i.UART_DMAError)
    i.UART_DMAReceiveCplt                    0x08002152   Section        0  stm32f4xx_hal_uart.o(i.UART_DMAReceiveCplt)
    UART_DMAReceiveCplt                      0x08002153   Thumb Code    60  stm32f4xx_hal_uart.o(i.UART_DMAReceiveCplt)
    i.UART_DMARxHalfCplt                     0x0800218e   Section        0  stm32f4xx_hal_uart.o(i.UART_DMARxHalfCplt)
    UART_DMARxHalfCplt                       0x0800218f   Thumb Code    10  stm32f4xx_hal_uart.o(i.UART_DMARxHalfCplt)
    i.UART_DMATransmitCplt                   0x08002198   Section        0  stm32f4xx_hal_uart.o(i.UART_DMATransmitCplt)
    UART_DMATransmitCplt                     0x08002199   Thumb Code    46  stm32f4xx_hal_uart.o(i.UART_DMATransmitCplt)
    i.UART_DMATxHalfCplt                     0x080021c6   Section        0  stm32f4xx_hal_uart.o(i.UART_DMATxHalfCplt)
    UART_DMATxHalfCplt                       0x080021c7   Thumb Code    10  stm32f4xx_hal_uart.o(i.UART_DMATxHalfCplt)
    i.UART_EndRxTransfer                     0x080021d0   Section        0  stm32f4xx_hal_uart.o(i.UART_EndRxTransfer)
    UART_EndRxTransfer                       0x080021d1   Thumb Code    28  stm32f4xx_hal_uart.o(i.UART_EndRxTransfer)
    i.UART_EndTxTransfer                     0x080021ec   Section        0  stm32f4xx_hal_uart.o(i.UART_EndTxTransfer)
    UART_EndTxTransfer                       0x080021ed   Thumb Code    18  stm32f4xx_hal_uart.o(i.UART_EndTxTransfer)
    i.UART_Receive_IT                        0x080021fe   Section        0  stm32f4xx_hal_uart.o(i.UART_Receive_IT)
    UART_Receive_IT                          0x080021ff   Thumb Code   140  stm32f4xx_hal_uart.o(i.UART_Receive_IT)
    i.UART_SetConfig                         0x0800228c   Section        0  stm32f4xx_hal_uart.o(i.UART_SetConfig)
    UART_SetConfig                           0x0800228d   Thumb Code   676  stm32f4xx_hal_uart.o(i.UART_SetConfig)
    i.UART_Transmit_IT                       0x08002538   Section        0  stm32f4xx_hal_uart.o(i.UART_Transmit_IT)
    UART_Transmit_IT                         0x08002539   Thumb Code    98  stm32f4xx_hal_uart.o(i.UART_Transmit_IT)
    i.USART2_IRQHandler                      0x0800259c   Section        0  stm32f4xx_it.o(i.USART2_IRQHandler)
    i.USART_IrqHandler                       0x080025b8   Section        0  dma_usart_idle.o(i.USART_IrqHandler)
    i.UsageFault_Handler                     0x080025d4   Section        0  stm32f4xx_it.o(i.UsageFault_Handler)
    i._Error_Handler                         0x080025d6   Section        0  main.o(i._Error_Handler)
    i.__scatterload_copy                     0x080025d8   Section       14  handlers.o(i.__scatterload_copy)
    i.__scatterload_null                     0x080025e6   Section        2  handlers.o(i.__scatterload_null)
    i.__scatterload_zeroinit                 0x080025e8   Section       14  handlers.o(i.__scatterload_zeroinit)
    i.ai_control_adc_active_channels         0x080025f8   Section        0  ai_control.o(i.ai_control_adc_active_channels)
    i.ai_control_adc_sqrt_value_summ         0x08002604   Section        0  ai_control.o(i.ai_control_adc_sqrt_value_summ)
    i.ai_control_adc_value_summ              0x08002658   Section        0  ai_control.o(i.ai_control_adc_value_summ)
    i.ai_control_eoc                         0x080026ac   Section        0  ai_control.o(i.ai_control_eoc)
    i.ai_control_init                        0x080026ec   Section        0  ai_control.o(i.ai_control_init)
    i.ai_control_load_rom_data               0x08002718   Section        0  ai_control.o(i.ai_control_load_rom_data)
    i.ai_control_poll                        0x0800276c   Section        0  ai_control.o(i.ai_control_poll)
    i.ai_control_poll_freq                   0x080027b4   Section        0  ai_control.o(i.ai_control_poll_freq)
    i.ai_control_poll_params                 0x080027c0   Section        0  ai_control.o(i.ai_control_poll_params)
    i.ai_control_set_poll_params             0x080027cc   Section        0  ai_control.o(i.ai_control_set_poll_params)
    i.ai_control_update                      0x08002804   Section        0  ai_control.o(i.ai_control_update)
    i.ai_control_update_flag                 0x08002810   Section        0  ai_control.o(i.ai_control_update_flag)
    i.get_ai_values                          0x0800281c   Section        0  modbus.o(i.get_ai_values)
    i.get_poll_params                        0x080028fc   Section        0  modbus.o(i.get_poll_params)
    get_poll_params                          0x080028fd   Thumb Code   124  modbus.o(i.get_poll_params)
    i.main                                   0x08002980   Section        0  main.o(i.main)
    i.modbus_f16                             0x08002ab4   Section        0  modbus.o(i.modbus_f16)
    i.modbus_f3                              0x08002aca   Section        0  modbus.o(i.modbus_f3)
    i.modbus_f4                              0x08002ae0   Section        0  modbus.o(i.modbus_f4)
    i.modbus_f8                              0x08002af6   Section        0  modbus.o(i.modbus_f8)
    i.modbus_init                            0x08002b0c   Section        0  modbus.o(i.modbus_init)
    i.modbus_on_rtu                          0x08002b1c   Section        0  modbus.o(i.modbus_on_rtu)
    i.modbus_response_echo                   0x08002b58   Section        0  modbus.o(i.modbus_response_echo)
    i.modbus_response_error                  0x08002bc0   Section        0  modbus.o(i.modbus_response_error)
    i.on_timeout                             0x08002bf8   Section        0  ai_control.o(i.on_timeout)
    i.rs485_recieve_enable                   0x08002c38   Section        0  dma_usart_idle.o(i.rs485_recieve_enable)
    i.rs485_transmit_enable                  0x08002c48   Section        0  dma_usart_idle.o(i.rs485_transmit_enable)
    i.save_data                              0x08002c58   Section        0  ai_control.o(i.save_data)
    save_data                                0x08002c59   Thumb Code    78  ai_control.o(i.save_data)
    i.set_poll_freq                          0x08002cb4   Section        0  ai_control.o(i.set_poll_freq)
    set_poll_freq                            0x08002cb5   Thumb Code    64  ai_control.o(i.set_poll_freq)
    i.set_poll_params                        0x08002d10   Section        0  ai_control.o(i.set_poll_params)
    set_poll_params                          0x08002d11   Thumb Code    50  ai_control.o(i.set_poll_params)
    i.set_poll_params_reg                    0x08002d48   Section        0  modbus.o(i.set_poll_params_reg)
    i.start_adc_conversion                   0x08002dd8   Section        0  ai_control.o(i.start_adc_conversion)
    i.switch_relay                           0x08002e20   Section        0  ai_control.o(i.switch_relay)
    .constdata                               0x08002e88   Section       16  system_stm32f4xx.o(.constdata)
    .constdata                               0x08002e98   Section        8  system_stm32f4xx.o(.constdata)
    .constdata                               0x08002ea0   Section        8  stm32f4xx_hal_dma.o(.constdata)
    flagBitshiftOffset                       0x08002ea0   Data           8  stm32f4xx_hal_dma.o(.constdata)
    .data                                    0x20000000   Section      512  modbus.o(.data)
    crc_hi                                   0x20000000   Data         256  modbus.o(.data)
    crc_lo                                   0x20000100   Data         256  modbus.o(.data)
    .data                                    0x20000200   Section        4  system_stm32f4xx.o(.data)
    .data                                    0x20000204   Section       12  stm32f4xx_hal.o(.data)
    .bss                                     0x20000210   Section      686  ai_control.o(.bss)
    .bss                                     0x200004be   Section      257  modbus.o(.bss)
    .bss                                     0x200005c0   Section      607  main.o(.bss)
    .bss                                     0x20000820   Section       96  main.o(.bss)
    .bss                                     0x20000880   Section      255  main.o(.bss)
    .bss                                     0x20000980   Section       32  stm32f4xx_hal_flash.o(.bss)
    STACK                                    0x200009a0   Section     1024  startup_stm32f407xx.o(STACK)

    Global Symbols

    Symbol Name                              Value     Ov Type        Size  Object(Section)

    BuildAttributes$$THM_ISAv4$E$P$D$K$B$S$7EM$VFPi3$EXTD16$VFPS$VFMA$PE$A:L22UL41UL21$X:L11$S22US41US21$IEEE1$IW$USESV6$~STKCKD$USESV7$~SHL$OSPACE$EBA8$MICROLIB$REQ8$PRES8$EABIv2 0x00000000   Number         0  anon$$obj.o ABSOLUTE
    __ARM_use_no_argv                        0x00000000   Number         0  main.o ABSOLUTE
    __cpp_initialize__aeabi_                  - Undefined Weak Reference
    __cxa_finalize                            - Undefined Weak Reference
    _clock_init                               - Undefined Weak Reference
    _microlib_exit                            - Undefined Weak Reference
    __Vectors_Size                           0x00000188   Number         0  startup_stm32f407xx.o ABSOLUTE
    __Vectors                                0x08000000   Data           4  startup_stm32f407xx.o(RESET)
    __Vectors_End                            0x08000188   Data           0  startup_stm32f407xx.o(RESET)
    __main                                   0x08000189   Thumb Code     0  entry.o(.ARM.Collect$$$$00000000)
    _main_stk                                0x08000189   Thumb Code     0  entry2.o(.ARM.Collect$$$$00000001)
    _main_scatterload                        0x0800018d   Thumb Code     0  entry5.o(.ARM.Collect$$$$00000004)
    __main_after_scatterload                 0x08000191   Thumb Code     0  entry5.o(.ARM.Collect$$$$00000004)
    _main_clock                              0x08000191   Thumb Code     0  entry7b.o(.ARM.Collect$$$$00000008)
    _main_cpp_init                           0x08000191   Thumb Code     0  entry8b.o(.ARM.Collect$$$$0000000A)
    _main_init                               0x08000191   Thumb Code     0  entry9a.o(.ARM.Collect$$$$0000000B)
    __rt_final_cpp                           0x08000199   Thumb Code     0  entry10a.o(.ARM.Collect$$$$0000000D)
    __rt_final_exit                          0x08000199   Thumb Code     0  entry11a.o(.ARM.Collect$$$$0000000F)
    Reset_Handler                            0x0800019d   Thumb Code     8  startup_stm32f407xx.o(.text)
    CAN1_RX0_IRQHandler                      0x080001b7   Thumb Code     0  startup_stm32f407xx.o(.text)
    CAN1_RX1_IRQHandler                      0x080001b7   Thumb Code     0  startup_stm32f407xx.o(.text)
    CAN1_SCE_IRQHandler                      0x080001b7   Thumb Code     0  startup_stm32f407xx.o(.text)
    CAN1_TX_IRQHandler                       0x080001b7   Thumb Code     0  startup_stm32f407xx.o(.text)
    CAN2_RX0_IRQHandler                      0x080001b7   Thumb Code     0  startup_stm32f407xx.o(.text)
    CAN2_RX1_IRQHandler                      0x080001b7   Thumb Code     0  startup_stm32f407xx.o(.text)
    CAN2_SCE_IRQHandler                      0x080001b7   Thumb Code     0  startup_stm32f407xx.o(.text)
    CAN2_TX_IRQHandler                       0x080001b7   Thumb Code     0  startup_stm32f407xx.o(.text)
    DCMI_IRQHandler                          0x080001b7   Thumb Code     0  startup_stm32f407xx.o(.text)
    DMA1_Stream0_IRQHandler                  0x080001b7   Thumb Code     0  startup_stm32f407xx.o(.text)
    DMA1_Stream1_IRQHandler                  0x080001b7   Thumb Code     0  startup_stm32f407xx.o(.text)
    DMA1_Stream2_IRQHandler                  0x080001b7   Thumb Code     0  startup_stm32f407xx.o(.text)
    DMA1_Stream3_IRQHandler                  0x080001b7   Thumb Code     0  startup_stm32f407xx.o(.text)
    DMA1_Stream4_IRQHandler                  0x080001b7   Thumb Code     0  startup_stm32f407xx.o(.text)
    DMA1_Stream7_IRQHandler                  0x080001b7   Thumb Code     0  startup_stm32f407xx.o(.text)
    DMA2_Stream0_IRQHandler                  0x080001b7   Thumb Code     0  startup_stm32f407xx.o(.text)
    DMA2_Stream1_IRQHandler                  0x080001b7   Thumb Code     0  startup_stm32f407xx.o(.text)
    DMA2_Stream2_IRQHandler                  0x080001b7   Thumb Code     0  startup_stm32f407xx.o(.text)
    DMA2_Stream3_IRQHandler                  0x080001b7   Thumb Code     0  startup_stm32f407xx.o(.text)
    DMA2_Stream4_IRQHandler                  0x080001b7   Thumb Code     0  startup_stm32f407xx.o(.text)
    DMA2_Stream5_IRQHandler                  0x080001b7   Thumb Code     0  startup_stm32f407xx.o(.text)
    DMA2_Stream6_IRQHandler                  0x080001b7   Thumb Code     0  startup_stm32f407xx.o(.text)
    DMA2_Stream7_IRQHandler                  0x080001b7   Thumb Code     0  startup_stm32f407xx.o(.text)
    ETH_IRQHandler                           0x080001b7   Thumb Code     0  startup_stm32f407xx.o(.text)
    ETH_WKUP_IRQHandler                      0x080001b7   Thumb Code     0  startup_stm32f407xx.o(.text)
    EXTI0_IRQHandler                         0x080001b7   Thumb Code     0  startup_stm32f407xx.o(.text)
    EXTI15_10_IRQHandler                     0x080001b7   Thumb Code     0  startup_stm32f407xx.o(.text)
    EXTI1_IRQHandler                         0x080001b7   Thumb Code     0  startup_stm32f407xx.o(.text)
    EXTI2_IRQHandler                         0x080001b7   Thumb Code     0  startup_stm32f407xx.o(.text)
    EXTI3_IRQHandler                         0x080001b7   Thumb Code     0  startup_stm32f407xx.o(.text)
    EXTI4_IRQHandler                         0x080001b7   Thumb Code     0  startup_stm32f407xx.o(.text)
    EXTI9_5_IRQHandler                       0x080001b7   Thumb Code     0  startup_stm32f407xx.o(.text)
    FLASH_IRQHandler                         0x080001b7   Thumb Code     0  startup_stm32f407xx.o(.text)
    FMC_IRQHandler                           0x080001b7   Thumb Code     0  startup_stm32f407xx.o(.text)
    FPU_IRQHandler                           0x080001b7   Thumb Code     0  startup_stm32f407xx.o(.text)
    HASH_RNG_IRQHandler                      0x080001b7   Thumb Code     0  startup_stm32f407xx.o(.text)
    I2C1_ER_IRQHandler                       0x080001b7   Thumb Code     0  startup_stm32f407xx.o(.text)
    I2C1_EV_IRQHandler                       0x080001b7   Thumb Code     0  startup_stm32f407xx.o(.text)
    I2C2_ER_IRQHandler                       0x080001b7   Thumb Code     0  startup_stm32f407xx.o(.text)
    I2C2_EV_IRQHandler                       0x080001b7   Thumb Code     0  startup_stm32f407xx.o(.text)
    I2C3_ER_IRQHandler                       0x080001b7   Thumb Code     0  startup_stm32f407xx.o(.text)
    I2C3_EV_IRQHandler                       0x080001b7   Thumb Code     0  startup_stm32f407xx.o(.text)
    OTG_FS_IRQHandler                        0x080001b7   Thumb Code     0  startup_stm32f407xx.o(.text)
    OTG_FS_WKUP_IRQHandler                   0x080001b7   Thumb Code     0  startup_stm32f407xx.o(.text)
    OTG_HS_EP1_IN_IRQHandler                 0x080001b7   Thumb Code     0  startup_stm32f407xx.o(.text)
    OTG_HS_EP1_OUT_IRQHandler                0x080001b7   Thumb Code     0  startup_stm32f407xx.o(.text)
    OTG_HS_IRQHandler                        0x080001b7   Thumb Code     0  startup_stm32f407xx.o(.text)
    OTG_HS_WKUP_IRQHandler                   0x080001b7   Thumb Code     0  startup_stm32f407xx.o(.text)
    PVD_IRQHandler                           0x080001b7   Thumb Code     0  startup_stm32f407xx.o(.text)
    RCC_IRQHandler                           0x080001b7   Thumb Code     0  startup_stm32f407xx.o(.text)
    RTC_Alarm_IRQHandler                     0x080001b7   Thumb Code     0  startup_stm32f407xx.o(.text)
    RTC_WKUP_IRQHandler                      0x080001b7   Thumb Code     0  startup_stm32f407xx.o(.text)
    SDIO_IRQHandler                          0x080001b7   Thumb Code     0  startup_stm32f407xx.o(.text)
    SPI1_IRQHandler                          0x080001b7   Thumb Code     0  startup_stm32f407xx.o(.text)
    SPI2_IRQHandler                          0x080001b7   Thumb Code     0  startup_stm32f407xx.o(.text)
    SPI3_IRQHandler                          0x080001b7   Thumb Code     0  startup_stm32f407xx.o(.text)
    TAMP_STAMP_IRQHandler                    0x080001b7   Thumb Code     0  startup_stm32f407xx.o(.text)
    TIM1_BRK_TIM9_IRQHandler                 0x080001b7   Thumb Code     0  startup_stm32f407xx.o(.text)
    TIM1_CC_IRQHandler                       0x080001b7   Thumb Code     0  startup_stm32f407xx.o(.text)
    TIM1_TRG_COM_TIM11_IRQHandler            0x080001b7   Thumb Code     0  startup_stm32f407xx.o(.text)
    TIM1_UP_TIM10_IRQHandler                 0x080001b7   Thumb Code     0  startup_stm32f407xx.o(.text)
    TIM2_IRQHandler                          0x080001b7   Thumb Code     0  startup_stm32f407xx.o(.text)
    TIM3_IRQHandler                          0x080001b7   Thumb Code     0  startup_stm32f407xx.o(.text)
    TIM4_IRQHandler                          0x080001b7   Thumb Code     0  startup_stm32f407xx.o(.text)
    TIM5_IRQHandler                          0x080001b7   Thumb Code     0  startup_stm32f407xx.o(.text)
    TIM8_BRK_TIM12_IRQHandler                0x080001b7   Thumb Code     0  startup_stm32f407xx.o(.text)
    TIM8_CC_IRQHandler                       0x080001b7   Thumb Code     0  startup_stm32f407xx.o(.text)
    TIM8_TRG_COM_TIM14_IRQHandler            0x080001b7   Thumb Code     0  startup_stm32f407xx.o(.text)
    TIM8_UP_TIM13_IRQHandler                 0x080001b7   Thumb Code     0  startup_stm32f407xx.o(.text)
    UART4_IRQHandler                         0x080001b7   Thumb Code     0  startup_stm32f407xx.o(.text)
    UART5_IRQHandler                         0x080001b7   Thumb Code     0  startup_stm32f407xx.o(.text)
    USART1_IRQHandler                        0x080001b7   Thumb Code     0  startup_stm32f407xx.o(.text)
    USART3_IRQHandler                        0x080001b7   Thumb Code     0  startup_stm32f407xx.o(.text)
    USART6_IRQHandler                        0x080001b7   Thumb Code     0  startup_stm32f407xx.o(.text)
    WWDG_IRQHandler                          0x080001b7   Thumb Code     0  startup_stm32f407xx.o(.text)
    __aeabi_uldivmod                         0x080001c1   Thumb Code    98  uldiv.o(.text)
    __aeabi_memcpy                           0x08000223   Thumb Code    36  memcpya.o(.text)
    __aeabi_memcpy4                          0x08000223   Thumb Code     0  memcpya.o(.text)
    __aeabi_memcpy8                          0x08000223   Thumb Code     0  memcpya.o(.text)
    __aeabi_memset                           0x08000247   Thumb Code    14  memseta.o(.text)
    __aeabi_memset4                          0x08000247   Thumb Code     0  memseta.o(.text)
    __aeabi_memset8                          0x08000247   Thumb Code     0  memseta.o(.text)
    __aeabi_memclr                           0x08000255   Thumb Code     4  memseta.o(.text)
    __aeabi_memclr4                          0x08000255   Thumb Code     0  memseta.o(.text)
    __aeabi_memclr8                          0x08000255   Thumb Code     0  memseta.o(.text)
    _memset$wrapper                          0x08000259   Thumb Code    18  memseta.o(.text)
    __aeabi_llsl                             0x0800026b   Thumb Code    30  llshl.o(.text)
    _ll_shift_l                              0x0800026b   Thumb Code     0  llshl.o(.text)
    __aeabi_llsr                             0x08000289   Thumb Code    32  llushr.o(.text)
    _ll_ushift_r                             0x08000289   Thumb Code     0  llushr.o(.text)
    __scatterload                            0x080002a9   Thumb Code    28  init.o(.text)
    __scatterload_rt2                        0x080002a9   Thumb Code     0  init.o(.text)
    __decompress                             0x080002cd   Thumb Code     0  __dclz77c.o(.text)
    __decompress2                            0x080002cd   Thumb Code    94  __dclz77c.o(.text)
    ADC_IRQHandler                           0x0800032d   Thumb Code    16  stm32f4xx_it.o(i.ADC_IRQHandler)
    BusFault_Handler                         0x08000465   Thumb Code     2  stm32f4xx_it.o(i.BusFault_Handler)
    CRC16                                    0x08000469   Thumb Code    40  modbus.o(i.CRC16)
    DMA1_Stream5_IRQHandler                  0x08000495   Thumb Code     6  stm32f4xx_it.o(i.DMA1_Stream5_IRQHandler)
    DMA1_Stream6_IRQHandler                  0x080004a1   Thumb Code    16  stm32f4xx_it.o(i.DMA1_Stream6_IRQHandler)
    DMA_IrqHandler                           0x08000531   Thumb Code    94  dma_usart_idle.o(i.DMA_IrqHandler)
    DebugMon_Handler                         0x080005c1   Thumb Code     2  stm32f4xx_it.o(i.DebugMon_Handler)
    FLASH_Erase_Sector                       0x080005c5   Thumb Code    74  stm32f4xx_hal_flash_ex.o(i.FLASH_Erase_Sector)
    FLASH_WaitForLastOperation               0x0800070d   Thumb Code    72  stm32f4xx_hal_flash.o(i.FLASH_WaitForLastOperation)
    HAL_ADCEx_InjectedConvCpltCallback       0x0800075d   Thumb Code     2  stm32f4xx_hal_adc_ex.o(i.HAL_ADCEx_InjectedConvCpltCallback)
    HAL_ADC_ConfigChannel                    0x08000761   Thumb Code   316  stm32f4xx_hal_adc.o(i.HAL_ADC_ConfigChannel)
    HAL_ADC_ConvCpltCallback                 0x080008ad   Thumb Code     2  stm32f4xx_hal_adc.o(i.HAL_ADC_ConvCpltCallback)
    HAL_ADC_ErrorCallback                    0x080008af   Thumb Code     2  stm32f4xx_hal_adc.o(i.HAL_ADC_ErrorCallback)
    HAL_ADC_GetValue                         0x080008b1   Thumb Code     6  stm32f4xx_hal_adc.o(i.HAL_ADC_GetValue)
    HAL_ADC_IRQHandler                       0x080008b7   Thumb Code   316  stm32f4xx_hal_adc.o(i.HAL_ADC_IRQHandler)
    HAL_ADC_Init                             0x080009f3   Thumb Code    84  stm32f4xx_hal_adc.o(i.HAL_ADC_Init)
    HAL_ADC_LevelOutOfWindowCallback         0x08000a47   Thumb Code     2  stm32f4xx_hal_adc.o(i.HAL_ADC_LevelOutOfWindowCallback)
    HAL_ADC_MspInit                          0x08000a49   Thumb Code    70  stm32f4xx_hal_msp.o(i.HAL_ADC_MspInit)
    HAL_ADC_Start_IT                         0x08000a9d   Thumb Code   180  stm32f4xx_hal_adc.o(i.HAL_ADC_Start_IT)
    HAL_DMA_Abort_IT                         0x08000b65   Thumb Code    36  stm32f4xx_hal_dma.o(i.HAL_DMA_Abort_IT)
    HAL_DMA_IRQHandler                       0x08000b89   Thumb Code   412  stm32f4xx_hal_dma.o(i.HAL_DMA_IRQHandler)
    HAL_DMA_Init                             0x08000d29   Thumb Code   206  stm32f4xx_hal_dma.o(i.HAL_DMA_Init)
    HAL_DMA_Start_IT                         0x08000dfd   Thumb Code   120  stm32f4xx_hal_dma.o(i.HAL_DMA_Start_IT)
    HAL_FLASH_Lock                           0x08000e75   Thumb Code    14  stm32f4xx_hal_flash.o(i.HAL_FLASH_Lock)
    HAL_FLASH_Program                        0x08000e89   Thumb Code   116  stm32f4xx_hal_flash.o(i.HAL_FLASH_Program)
    HAL_FLASH_Unlock                         0x08000f05   Thumb Code    32  stm32f4xx_hal_flash.o(i.HAL_FLASH_Unlock)
    HAL_GPIO_Init                            0x08000f31   Thumb Code   388  stm32f4xx_hal_gpio.o(i.HAL_GPIO_Init)
    HAL_GPIO_WritePin                        0x080010e1   Thumb Code    10  stm32f4xx_hal_gpio.o(i.HAL_GPIO_WritePin)
    HAL_GetTick                              0x080010ed   Thumb Code     6  stm32f4xx_hal.o(i.HAL_GetTick)
    HAL_IncTick                              0x080010f9   Thumb Code    12  stm32f4xx_hal.o(i.HAL_IncTick)
    HAL_Init                                 0x08001109   Thumb Code    48  stm32f4xx_hal.o(i.HAL_Init)
    HAL_InitTick                             0x0800113d   Thumb Code    54  stm32f4xx_hal.o(i.HAL_InitTick)
    HAL_MspInit                              0x0800117d   Thumb Code   126  stm32f4xx_hal_msp.o(i.HAL_MspInit)
    HAL_NVIC_EnableIRQ                       0x08001201   Thumb Code    22  stm32f4xx_hal_cortex.o(i.HAL_NVIC_EnableIRQ)
    HAL_NVIC_SetPriority                     0x08001219   Thumb Code    60  stm32f4xx_hal_cortex.o(i.HAL_NVIC_SetPriority)
    HAL_NVIC_SetPriorityGrouping             0x08001259   Thumb Code    26  stm32f4xx_hal_cortex.o(i.HAL_NVIC_SetPriorityGrouping)
    HAL_RCC_ClockConfig                      0x0800127d   Thumb Code   286  stm32f4xx_hal_rcc.o(i.HAL_RCC_ClockConfig)
    HAL_RCC_GetHCLKFreq                      0x080013ad   Thumb Code     6  stm32f4xx_hal_rcc.o(i.HAL_RCC_GetHCLKFreq)
    HAL_RCC_GetPCLK1Freq                     0x080013b9   Thumb Code    20  stm32f4xx_hal_rcc.o(i.HAL_RCC_GetPCLK1Freq)
    HAL_RCC_GetPCLK2Freq                     0x080013d9   Thumb Code    20  stm32f4xx_hal_rcc.o(i.HAL_RCC_GetPCLK2Freq)
    HAL_RCC_GetSysClockFreq                  0x080013f9   Thumb Code    88  stm32f4xx_hal_rcc.o(i.HAL_RCC_GetSysClockFreq)
    HAL_RCC_OscConfig                        0x08001459   Thumb Code   770  stm32f4xx_hal_rcc.o(i.HAL_RCC_OscConfig)
    HAL_SYSTICK_CLKSourceConfig              0x08001775   Thumb Code    24  stm32f4xx_hal_cortex.o(i.HAL_SYSTICK_CLKSourceConfig)
    HAL_SYSTICK_Callback                     0x0800178d   Thumb Code     2  stm32f4xx_hal_cortex.o(i.HAL_SYSTICK_Callback)
    HAL_SYSTICK_Config                       0x0800178f   Thumb Code    40  stm32f4xx_hal_cortex.o(i.HAL_SYSTICK_Config)
    HAL_SYSTICK_IRQHandler                   0x080017b7   Thumb Code     8  stm32f4xx_hal_cortex.o(i.HAL_SYSTICK_IRQHandler)
    HAL_TIMEx_BreakCallback                  0x080017bf   Thumb Code     2  stm32f4xx_hal_tim_ex.o(i.HAL_TIMEx_BreakCallback)
    HAL_TIMEx_CommutationCallback            0x080017c1   Thumb Code     2  stm32f4xx_hal_tim_ex.o(i.HAL_TIMEx_CommutationCallback)
    HAL_TIMEx_MasterConfigSynchronization    0x080017c3   Thumb Code    80  stm32f4xx_hal_tim_ex.o(i.HAL_TIMEx_MasterConfigSynchronization)
    HAL_TIM_Base_Init                        0x08001813   Thumb Code    54  stm32f4xx_hal_tim.o(i.HAL_TIM_Base_Init)
    HAL_TIM_Base_MspInit                     0x08001849   Thumb Code    86  stm32f4xx_hal_msp.o(i.HAL_TIM_Base_MspInit)
    HAL_TIM_Base_Start_IT                    0x080018ad   Thumb Code    24  stm32f4xx_hal_tim.o(i.HAL_TIM_Base_Start_IT)
    HAL_TIM_Base_Stop_IT                     0x080018c5   Thumb Code    42  stm32f4xx_hal_tim.o(i.HAL_TIM_Base_Stop_IT)
    HAL_TIM_IC_CaptureCallback               0x080018ef   Thumb Code     2  stm32f4xx_hal_tim.o(i.HAL_TIM_IC_CaptureCallback)
    HAL_TIM_IRQHandler                       0x080018f1   Thumb Code   358  stm32f4xx_hal_tim.o(i.HAL_TIM_IRQHandler)
    HAL_TIM_OC_DelayElapsedCallback          0x08001a57   Thumb Code     2  stm32f4xx_hal_tim.o(i.HAL_TIM_OC_DelayElapsedCallback)
    HAL_TIM_PWM_PulseFinishedCallback        0x08001a59   Thumb Code     2  stm32f4xx_hal_tim.o(i.HAL_TIM_PWM_PulseFinishedCallback)
    HAL_TIM_PeriodElapsedCallback            0x08001a5b   Thumb Code     2  stm32f4xx_hal_tim.o(i.HAL_TIM_PeriodElapsedCallback)
    HAL_TIM_TriggerCallback                  0x08001a5d   Thumb Code     2  stm32f4xx_hal_tim.o(i.HAL_TIM_TriggerCallback)
    HAL_UART_ErrorCallback                   0x08001a5f   Thumb Code     2  stm32f4xx_hal_uart.o(i.HAL_UART_ErrorCallback)
    HAL_UART_IRQHandler                      0x08001a61   Thumb Code   266  stm32f4xx_hal_uart.o(i.HAL_UART_IRQHandler)
    HAL_UART_Init                            0x08001b71   Thumb Code    98  stm32f4xx_hal_uart.o(i.HAL_UART_Init)
    HAL_UART_MspInit                         0x08001bd5   Thumb Code   188  stm32f4xx_hal_msp.o(i.HAL_UART_MspInit)
    HAL_UART_Receive_DMA                     0x08001cc5   Thumb Code   138  stm32f4xx_hal_uart.o(i.HAL_UART_Receive_DMA)
    HAL_UART_RxCpltCallback                  0x08001d5d   Thumb Code     2  stm32f4xx_hal_uart.o(i.HAL_UART_RxCpltCallback)
    HAL_UART_RxHalfCpltCallback              0x08001d5f   Thumb Code     2  stm32f4xx_hal_uart.o(i.HAL_UART_RxHalfCpltCallback)
    HAL_UART_Transmit_DMA                    0x08001d61   Thumb Code   114  stm32f4xx_hal_uart.o(i.HAL_UART_Transmit_DMA)
    HAL_UART_TxCpltCallback                  0x08001de1   Thumb Code     2  stm32f4xx_hal_uart.o(i.HAL_UART_TxCpltCallback)
    HAL_UART_TxHalfCpltCallback              0x08001de3   Thumb Code     2  stm32f4xx_hal_uart.o(i.HAL_UART_TxHalfCpltCallback)
    HardFault_Handler                        0x08001de5   Thumb Code     2  stm32f4xx_it.o(i.HardFault_Handler)
    MemManage_Handler                        0x08001eed   Thumb Code     2  stm32f4xx_it.o(i.MemManage_Handler)
    NMI_Handler                              0x08001eef   Thumb Code     2  stm32f4xx_it.o(i.NMI_Handler)
    PendSV_Handler                           0x08001f11   Thumb Code     2  stm32f4xx_it.o(i.PendSV_Handler)
    SVC_Handler                              0x08001f13   Thumb Code     2  stm32f4xx_it.o(i.SVC_Handler)
    SysTick_Handler                          0x08001f15   Thumb Code    14  stm32f4xx_it.o(i.SysTick_Handler)
    SystemClock_Config                       0x08001f25   Thumb Code   144  main.o(i.SystemClock_Config)
    SystemInit                               0x08001fbd   Thumb Code    66  system_stm32f4xx.o(i.SystemInit)
    TIM6_DAC_IRQHandler                      0x08002011   Thumb Code    16  stm32f4xx_it.o(i.TIM6_DAC_IRQHandler)
    TIM7_IRQHandler                          0x08002025   Thumb Code    16  stm32f4xx_it.o(i.TIM7_IRQHandler)
    TIM_Base_SetConfig                       0x08002039   Thumb Code   148  stm32f4xx_hal_tim.o(i.TIM_Base_SetConfig)
    USART2_IRQHandler                        0x0800259d   Thumb Code    20  stm32f4xx_it.o(i.USART2_IRQHandler)
    USART_IrqHandler                         0x080025b9   Thumb Code    28  dma_usart_idle.o(i.USART_IrqHandler)
    UsageFault_Handler                       0x080025d5   Thumb Code     2  stm32f4xx_it.o(i.UsageFault_Handler)
    _Error_Handler                           0x080025d7   Thumb Code     2  main.o(i._Error_Handler)
    __scatterload_copy                       0x080025d9   Thumb Code    14  handlers.o(i.__scatterload_copy)
    __scatterload_null                       0x080025e7   Thumb Code     2  handlers.o(i.__scatterload_null)
    __scatterload_zeroinit                   0x080025e9   Thumb Code    14  handlers.o(i.__scatterload_zeroinit)
    ai_control_adc_active_channels           0x080025f9   Thumb Code     6  ai_control.o(i.ai_control_adc_active_channels)
    ai_control_adc_sqrt_value_summ           0x08002605   Thumb Code    78  ai_control.o(i.ai_control_adc_sqrt_value_summ)
    ai_control_adc_value_summ                0x08002659   Thumb Code    78  ai_control.o(i.ai_control_adc_value_summ)
    ai_control_eoc                           0x080026ad   Thumb Code    54  ai_control.o(i.ai_control_eoc)
    ai_control_init                          0x080026ed   Thumb Code    38  ai_control.o(i.ai_control_init)
    ai_control_load_rom_data                 0x08002719   Thumb Code    76  ai_control.o(i.ai_control_load_rom_data)
    ai_control_poll                          0x0800276d   Thumb Code    66  ai_control.o(i.ai_control_poll)
    ai_control_poll_freq                     0x080027b5   Thumb Code     6  ai_control.o(i.ai_control_poll_freq)
    ai_control_poll_params                   0x080027c1   Thumb Code     6  ai_control.o(i.ai_control_poll_params)
    ai_control_set_poll_params               0x080027cd   Thumb Code    50  ai_control.o(i.ai_control_set_poll_params)
    ai_control_update                        0x08002805   Thumb Code     8  ai_control.o(i.ai_control_update)
    ai_control_update_flag                   0x08002811   Thumb Code     6  ai_control.o(i.ai_control_update_flag)
    get_ai_values                            0x0800281d   Thumb Code   216  modbus.o(i.get_ai_values)
    main                                     0x08002981   Thumb Code   266  main.o(i.main)
    modbus_f16                               0x08002ab5   Thumb Code    22  modbus.o(i.modbus_f16)
    modbus_f3                                0x08002acb   Thumb Code    22  modbus.o(i.modbus_f3)
    modbus_f4                                0x08002ae1   Thumb Code    22  modbus.o(i.modbus_f4)
    modbus_f8                                0x08002af7   Thumb Code    20  modbus.o(i.modbus_f8)
    modbus_init                              0x08002b0d   Thumb Code    12  modbus.o(i.modbus_init)
    modbus_on_rtu                            0x08002b1d   Thumb Code    54  modbus.o(i.modbus_on_rtu)
    modbus_response_echo                     0x08002b59   Thumb Code    94  modbus.o(i.modbus_response_echo)
    modbus_response_error                    0x08002bc1   Thumb Code    48  modbus.o(i.modbus_response_error)
    on_timeout                               0x08002bf9   Thumb Code    34  ai_control.o(i.on_timeout)
    rs485_recieve_enable                     0x08002c39   Thumb Code    12  dma_usart_idle.o(i.rs485_recieve_enable)
    rs485_transmit_enable                    0x08002c49   Thumb Code    10  dma_usart_idle.o(i.rs485_transmit_enable)
    set_poll_params_reg                      0x08002d49   Thumb Code   134  modbus.o(i.set_poll_params_reg)
    start_adc_conversion                     0x08002dd9   Thumb Code    44  ai_control.o(i.start_adc_conversion)
    switch_relay                             0x08002e21   Thumb Code    94  ai_control.o(i.switch_relay)
    AHBPrescTable                            0x08002e88   Data          16  system_stm32f4xx.o(.constdata)
    APBPrescTable                            0x08002e98   Data           8  system_stm32f4xx.o(.constdata)
    Region$$Table$$Base                      0x08002ea8   Number         0  anon$$obj.o(Region$$Table)
    Region$$Table$$Limit                     0x08002ec8   Number         0  anon$$obj.o(Region$$Table)
    SystemCoreClock                          0x20000200   Data           4  system_stm32f4xx.o(.data)
    uwTickFreq                               0x20000204   Data           1  stm32f4xx_hal.o(.data)
    uwTickPrio                               0x20000208   Data           4  stm32f4xx_hal.o(.data)
    uwTick                                   0x2000020c   Data           4  stm32f4xx_hal.o(.data)
    ai_control                               0x20000210   Data         686  ai_control.o(.bss)
    modbus                                   0x200004be   Data         257  modbus.o(.bss)
    hadc1                                    0x200005c0   Data          72  main.o(.bss)
    htim6                                    0x20000608   Data          60  main.o(.bss)
    htim7                                    0x20000644   Data          60  main.o(.bss)
    huart2                                   0x20000680   Data          64  main.o(.bss)
    hdma_usart2_rx                           0x200006c0   Data          96  main.o(.bss)
    DMA_RX_Buffer                            0x20000720   Data         255  main.o(.bss)
    hdma_usart2_tx                           0x20000820   Data          96  main.o(.bss)
    UART_Buffer                              0x20000880   Data         255  main.o(.bss)
    pFlash                                   0x20000980   Data          32  stm32f4xx_hal_flash.o(.bss)
    __initial_sp                             0x20000da0   Data           0  startup_stm32f407xx.o(STACK)



==============================================================================

Memory Map of the image

  Image Entry point : 0x08000189

  Load Region LR_IROM1 (Base: 0x08000000, Size: 0x000030d8, Max: 0x00100000, ABSOLUTE, COMPRESSED[0x00002ffc])

    Execution Region ER_IROM1 (Base: 0x08000000, Size: 0x00002ec8, Max: 0x00100000, ABSOLUTE)

    Base Addr    Size         Type   Attr      Idx    E Section Name        Object

    0x08000000   0x00000188   Data   RO            3    RESET               startup_stm32f407xx.o
    0x08000188   0x00000000   Code   RO         3165  * .ARM.Collect$$$$00000000  mc_w.l(entry.o)
    0x08000188   0x00000004   Code   RO         3176    .ARM.Collect$$$$00000001  mc_w.l(entry2.o)
    0x0800018c   0x00000004   Code   RO         3179    .ARM.Collect$$$$00000004  mc_w.l(entry5.o)
    0x08000190   0x00000000   Code   RO         3181    .ARM.Collect$$$$00000008  mc_w.l(entry7b.o)
    0x08000190   0x00000000   Code   RO         3183    .ARM.Collect$$$$0000000A  mc_w.l(entry8b.o)
    0x08000190   0x00000008   Code   RO         3184    .ARM.Collect$$$$0000000B  mc_w.l(entry9a.o)
    0x08000198   0x00000000   Code   RO         3186    .ARM.Collect$$$$0000000D  mc_w.l(entry10a.o)
    0x08000198   0x00000000   Code   RO         3188    .ARM.Collect$$$$0000000F  mc_w.l(entry11a.o)
    0x08000198   0x00000004   Code   RO         3177    .ARM.Collect$$$$00002712  mc_w.l(entry2.o)
    0x0800019c   0x00000024   Code   RO            4    .text               startup_stm32f407xx.o
    0x080001c0   0x00000062   Code   RO         3168    .text               mc_w.l(uldiv.o)
    0x08000222   0x00000024   Code   RO         3170    .text               mc_w.l(memcpya.o)
    0x08000246   0x00000024   Code   RO         3172    .text               mc_w.l(memseta.o)
    0x0800026a   0x0000001e   Code   RO         3190    .text               mc_w.l(llshl.o)
    0x08000288   0x00000020   Code   RO         3192    .text               mc_w.l(llushr.o)
    0x080002a8   0x00000024   Code   RO         3194    .text               mc_w.l(init.o)
    0x080002cc   0x0000005e   Code   RO         3204    .text               mc_w.l(__dclz77c.o)
    0x0800032a   0x00000002   PAD
    0x0800032c   0x00000014   Code   RO          441    i.ADC_IRQHandler    stm32f4xx_it.o
    0x08000340   0x00000124   Code   RO          655    i.ADC_Init          stm32f4xx_hal_adc.o
    0x08000464   0x00000002   Code   RO          442    i.BusFault_Handler  stm32f4xx_it.o
    0x08000466   0x00000002   PAD
    0x08000468   0x0000002c   Code   RO          295    i.CRC16             modbus.o
    0x08000494   0x0000000c   Code   RO          443    i.DMA1_Stream5_IRQHandler  stm32f4xx_it.o
    0x080004a0   0x00000014   Code   RO          444    i.DMA1_Stream6_IRQHandler  stm32f4xx_it.o
    0x080004b4   0x00000028   Code   RO         2582    i.DMA_CalcBaseAndBitshift  stm32f4xx_hal_dma.o
    0x080004dc   0x00000054   Code   RO         2583    i.DMA_CheckFifoParam  stm32f4xx_hal_dma.o
    0x08000530   0x00000068   Code   RO          249    i.DMA_IrqHandler    dma_usart_idle.o
    0x08000598   0x00000028   Code   RO         2584    i.DMA_SetConfig     stm32f4xx_hal_dma.o
    0x080005c0   0x00000002   Code   RO          445    i.DebugMon_Handler  stm32f4xx_it.o
    0x080005c2   0x00000002   PAD
    0x080005c4   0x00000050   Code   RO         2397    i.FLASH_Erase_Sector  stm32f4xx_hal_flash_ex.o
    0x08000614   0x00000020   Code   RO         2279    i.FLASH_Program_Byte  stm32f4xx_hal_flash.o
    0x08000634   0x00000028   Code   RO         2280    i.FLASH_Program_DoubleWord  stm32f4xx_hal_flash.o
    0x0800065c   0x00000024   Code   RO         2281    i.FLASH_Program_HalfWord  stm32f4xx_hal_flash.o
    0x08000680   0x00000024   Code   RO         2282    i.FLASH_Program_Word  stm32f4xx_hal_flash.o
    0x080006a4   0x00000068   Code   RO         2283    i.FLASH_SetErrorCode  stm32f4xx_hal_flash.o
    0x0800070c   0x00000050   Code   RO         2284    i.FLASH_WaitForLastOperation  stm32f4xx_hal_flash.o
    0x0800075c   0x00000002   Code   RO          826    i.HAL_ADCEx_InjectedConvCpltCallback  stm32f4xx_hal_adc_ex.o
    0x0800075e   0x00000002   PAD
    0x08000760   0x0000014c   Code   RO          657    i.HAL_ADC_ConfigChannel  stm32f4xx_hal_adc.o
    0x080008ac   0x00000002   Code   RO          658    i.HAL_ADC_ConvCpltCallback  stm32f4xx_hal_adc.o
    0x080008ae   0x00000002   Code   RO          661    i.HAL_ADC_ErrorCallback  stm32f4xx_hal_adc.o
    0x080008b0   0x00000006   Code   RO          664    i.HAL_ADC_GetValue  stm32f4xx_hal_adc.o
    0x080008b6   0x0000013c   Code   RO          665    i.HAL_ADC_IRQHandler  stm32f4xx_hal_adc.o
    0x080009f2   0x00000054   Code   RO          666    i.HAL_ADC_Init      stm32f4xx_hal_adc.o
    0x08000a46   0x00000002   Code   RO          667    i.HAL_ADC_LevelOutOfWindowCallback  stm32f4xx_hal_adc.o
    0x08000a48   0x00000054   Code   RO          554    i.HAL_ADC_MspInit   stm32f4xx_hal_msp.o
    0x08000a9c   0x000000c8   Code   RO          674    i.HAL_ADC_Start_IT  stm32f4xx_hal_adc.o
    0x08000b64   0x00000024   Code   RO         2586    i.HAL_DMA_Abort_IT  stm32f4xx_hal_dma.o
    0x08000b88   0x000001a0   Code   RO         2590    i.HAL_DMA_IRQHandler  stm32f4xx_hal_dma.o
    0x08000d28   0x000000d4   Code   RO         2591    i.HAL_DMA_Init      stm32f4xx_hal_dma.o
    0x08000dfc   0x00000078   Code   RO         2595    i.HAL_DMA_Start_IT  stm32f4xx_hal_dma.o
    0x08000e74   0x00000014   Code   RO         2288    i.HAL_FLASH_Lock    stm32f4xx_hal_flash.o
    0x08000e88   0x0000007c   Code   RO         2293    i.HAL_FLASH_Program  stm32f4xx_hal_flash.o
    0x08000f04   0x0000002c   Code   RO         2295    i.HAL_FLASH_Unlock  stm32f4xx_hal_flash.o
    0x08000f30   0x000001b0   Code   RO         2478    i.HAL_GPIO_Init     stm32f4xx_hal_gpio.o
    0x080010e0   0x0000000a   Code   RO         2482    i.HAL_GPIO_WritePin  stm32f4xx_hal_gpio.o
    0x080010ea   0x00000002   PAD
    0x080010ec   0x0000000c   Code   RO         3010    i.HAL_GetTick       stm32f4xx_hal.o
    0x080010f8   0x00000010   Code   RO         3014    i.HAL_IncTick       stm32f4xx_hal.o
    0x08001108   0x00000034   Code   RO         3015    i.HAL_Init          stm32f4xx_hal.o
    0x0800113c   0x00000040   Code   RO         3016    i.HAL_InitTick      stm32f4xx_hal.o
    0x0800117c   0x00000084   Code   RO          555    i.HAL_MspInit       stm32f4xx_hal_msp.o
    0x08001200   0x00000016   Code   RO         2867    i.HAL_NVIC_EnableIRQ  stm32f4xx_hal_cortex.o
    0x08001216   0x00000002   PAD
    0x08001218   0x00000040   Code   RO         2873    i.HAL_NVIC_SetPriority  stm32f4xx_hal_cortex.o
    0x08001258   0x00000024   Code   RO         2874    i.HAL_NVIC_SetPriorityGrouping  stm32f4xx_hal_cortex.o
    0x0800127c   0x00000130   Code   RO         2124    i.HAL_RCC_ClockConfig  stm32f4xx_hal_rcc.o
    0x080013ac   0x0000000c   Code   RO         2129    i.HAL_RCC_GetHCLKFreq  stm32f4xx_hal_rcc.o
    0x080013b8   0x00000020   Code   RO         2131    i.HAL_RCC_GetPCLK1Freq  stm32f4xx_hal_rcc.o
    0x080013d8   0x00000020   Code   RO         2132    i.HAL_RCC_GetPCLK2Freq  stm32f4xx_hal_rcc.o
    0x080013f8   0x00000060   Code   RO         2133    i.HAL_RCC_GetSysClockFreq  stm32f4xx_hal_rcc.o
    0x08001458   0x0000031c   Code   RO         2136    i.HAL_RCC_OscConfig  stm32f4xx_hal_rcc.o
    0x08001774   0x00000018   Code   RO         2876    i.HAL_SYSTICK_CLKSourceConfig  stm32f4xx_hal_cortex.o
    0x0800178c   0x00000002   Code   RO         2877    i.HAL_SYSTICK_Callback  stm32f4xx_hal_cortex.o
    0x0800178e   0x00000028   Code   RO         2878    i.HAL_SYSTICK_Config  stm32f4xx_hal_cortex.o
    0x080017b6   0x00000008   Code   RO         2879    i.HAL_SYSTICK_IRQHandler  stm32f4xx_hal_cortex.o
    0x080017be   0x00000002   Code   RO         1558    i.HAL_TIMEx_BreakCallback  stm32f4xx_hal_tim_ex.o
    0x080017c0   0x00000002   Code   RO         1559    i.HAL_TIMEx_CommutationCallback  stm32f4xx_hal_tim_ex.o
    0x080017c2   0x00000050   Code   RO         1575    i.HAL_TIMEx_MasterConfigSynchronization  stm32f4xx_hal_tim_ex.o
    0x08001812   0x00000036   Code   RO          929    i.HAL_TIM_Base_Init  stm32f4xx_hal_tim.o
    0x08001848   0x00000064   Code   RO          557    i.HAL_TIM_Base_MspInit  stm32f4xx_hal_msp.o
    0x080018ac   0x00000018   Code   RO          934    i.HAL_TIM_Base_Start_IT  stm32f4xx_hal_tim.o
    0x080018c4   0x0000002a   Code   RO          937    i.HAL_TIM_Base_Stop_IT  stm32f4xx_hal_tim.o
    0x080018ee   0x00000002   Code   RO          958    i.HAL_TIM_IC_CaptureCallback  stm32f4xx_hal_tim.o
    0x080018f0   0x00000166   Code   RO          971    i.HAL_TIM_IRQHandler  stm32f4xx_hal_tim.o
    0x08001a56   0x00000002   Code   RO          974    i.HAL_TIM_OC_DelayElapsedCallback  stm32f4xx_hal_tim.o
    0x08001a58   0x00000002   Code   RO         1001    i.HAL_TIM_PWM_PulseFinishedCallback  stm32f4xx_hal_tim.o
    0x08001a5a   0x00000002   Code   RO         1008    i.HAL_TIM_PeriodElapsedCallback  stm32f4xx_hal_tim.o
    0x08001a5c   0x00000002   Code   RO         1012    i.HAL_TIM_TriggerCallback  stm32f4xx_hal_tim.o
    0x08001a5e   0x00000002   Code   RO         1818    i.HAL_UART_ErrorCallback  stm32f4xx_hal_uart.o
    0x08001a60   0x00000110   Code   RO         1821    i.HAL_UART_IRQHandler  stm32f4xx_hal_uart.o
    0x08001b70   0x00000062   Code   RO         1822    i.HAL_UART_Init     stm32f4xx_hal_uart.o
    0x08001bd2   0x00000002   PAD
    0x08001bd4   0x000000f0   Code   RO          559    i.HAL_UART_MspInit  stm32f4xx_hal_msp.o
    0x08001cc4   0x00000098   Code   RO         1826    i.HAL_UART_Receive_DMA  stm32f4xx_hal_uart.o
    0x08001d5c   0x00000002   Code   RO         1828    i.HAL_UART_RxCpltCallback  stm32f4xx_hal_uart.o
    0x08001d5e   0x00000002   Code   RO         1829    i.HAL_UART_RxHalfCpltCallback  stm32f4xx_hal_uart.o
    0x08001d60   0x00000080   Code   RO         1831    i.HAL_UART_Transmit_DMA  stm32f4xx_hal_uart.o
    0x08001de0   0x00000002   Code   RO         1833    i.HAL_UART_TxCpltCallback  stm32f4xx_hal_uart.o
    0x08001de2   0x00000002   Code   RO         1834    i.HAL_UART_TxHalfCpltCallback  stm32f4xx_hal_uart.o
    0x08001de4   0x00000002   Code   RO          446    i.HardFault_Handler  stm32f4xx_it.o
    0x08001de6   0x00000002   PAD
    0x08001de8   0x00000050   Code   RO          384    i.MX_ADC1_Init      main.o
    0x08001e38   0x000000b4   Code   RO          385    i.MX_GPIO_Init      main.o
    0x08001eec   0x00000002   Code   RO          447    i.MemManage_Handler  stm32f4xx_it.o
    0x08001eee   0x00000002   Code   RO          448    i.NMI_Handler       stm32f4xx_it.o
    0x08001ef0   0x00000020   Code   RO         2880    i.NVIC_SetPriority  stm32f4xx_hal_cortex.o
    0x08001f10   0x00000002   Code   RO          449    i.PendSV_Handler    stm32f4xx_it.o
    0x08001f12   0x00000002   Code   RO          450    i.SVC_Handler       stm32f4xx_it.o
    0x08001f14   0x0000000e   Code   RO          451    i.SysTick_Handler   stm32f4xx_it.o
    0x08001f22   0x00000002   PAD
    0x08001f24   0x00000098   Code   RO          386    i.SystemClock_Config  main.o
    0x08001fbc   0x00000054   Code   RO          615    i.SystemInit        system_stm32f4xx.o
    0x08002010   0x00000014   Code   RO          452    i.TIM6_DAC_IRQHandler  stm32f4xx_it.o
    0x08002024   0x00000014   Code   RO          453    i.TIM7_IRQHandler   stm32f4xx_it.o
    0x08002038   0x000000c0   Code   RO         1013    i.TIM_Base_SetConfig  stm32f4xx_hal_tim.o
    0x080020f8   0x00000010   Code   RO         1835    i.UART_DMAAbortOnError  stm32f4xx_hal_uart.o
    0x08002108   0x0000004a   Code   RO         1836    i.UART_DMAError     stm32f4xx_hal_uart.o
    0x08002152   0x0000003c   Code   RO         1837    i.UART_DMAReceiveCplt  stm32f4xx_hal_uart.o
    0x0800218e   0x0000000a   Code   RO         1839    i.UART_DMARxHalfCplt  stm32f4xx_hal_uart.o
    0x08002198   0x0000002e   Code   RO         1841    i.UART_DMATransmitCplt  stm32f4xx_hal_uart.o
    0x080021c6   0x0000000a   Code   RO         1843    i.UART_DMATxHalfCplt  stm32f4xx_hal_uart.o
    0x080021d0   0x0000001c   Code   RO         1845    i.UART_EndRxTransfer  stm32f4xx_hal_uart.o
    0x080021ec   0x00000012   Code   RO         1846    i.UART_EndTxTransfer  stm32f4xx_hal_uart.o
    0x080021fe   0x0000008c   Code   RO         1847    i.UART_Receive_IT   stm32f4xx_hal_uart.o
    0x0800228a   0x00000002   PAD
    0x0800228c   0x000002ac   Code   RO         1848    i.UART_SetConfig    stm32f4xx_hal_uart.o
    0x08002538   0x00000062   Code   RO         1849    i.UART_Transmit_IT  stm32f4xx_hal_uart.o
    0x0800259a   0x00000002   PAD
    0x0800259c   0x0000001c   Code   RO          454    i.USART2_IRQHandler  stm32f4xx_it.o
    0x080025b8   0x0000001c   Code   RO          250    i.USART_IrqHandler  dma_usart_idle.o
    0x080025d4   0x00000002   Code   RO          455    i.UsageFault_Handler  stm32f4xx_it.o
    0x080025d6   0x00000002   Code   RO          387    i._Error_Handler    main.o
    0x080025d8   0x0000000e   Code   RO         3198    i.__scatterload_copy  mc_w.l(handlers.o)
    0x080025e6   0x00000002   Code   RO         3199    i.__scatterload_null  mc_w.l(handlers.o)
    0x080025e8   0x0000000e   Code   RO         3200    i.__scatterload_zeroinit  mc_w.l(handlers.o)
    0x080025f6   0x00000002   PAD
    0x080025f8   0x0000000c   Code   RO           13    i.ai_control_adc_active_channels  ai_control.o
    0x08002604   0x00000054   Code   RO           14    i.ai_control_adc_sqrt_value_summ  ai_control.o
    0x08002658   0x00000054   Code   RO           15    i.ai_control_adc_value_summ  ai_control.o
    0x080026ac   0x00000040   Code   RO           16    i.ai_control_eoc    ai_control.o
    0x080026ec   0x0000002c   Code   RO           17    i.ai_control_init   ai_control.o
    0x08002718   0x00000054   Code   RO           18    i.ai_control_load_rom_data  ai_control.o
    0x0800276c   0x00000048   Code   RO           19    i.ai_control_poll   ai_control.o
    0x080027b4   0x0000000c   Code   RO           20    i.ai_control_poll_freq  ai_control.o
    0x080027c0   0x0000000c   Code   RO           21    i.ai_control_poll_params  ai_control.o
    0x080027cc   0x00000038   Code   RO           22    i.ai_control_set_poll_params  ai_control.o
    0x08002804   0x0000000c   Code   RO           23    i.ai_control_update  ai_control.o
    0x08002810   0x0000000c   Code   RO           24    i.ai_control_update_flag  ai_control.o
    0x0800281c   0x000000e0   Code   RO          296    i.get_ai_values     modbus.o
    0x080028fc   0x00000084   Code   RO          297    i.get_poll_params   modbus.o
    0x08002980   0x00000134   Code   RO          388    i.main              main.o
    0x08002ab4   0x00000016   Code   RO          298    i.modbus_f16        modbus.o
    0x08002aca   0x00000016   Code   RO          299    i.modbus_f3         modbus.o
    0x08002ae0   0x00000016   Code   RO          300    i.modbus_f4         modbus.o
    0x08002af6   0x00000014   Code   RO          301    i.modbus_f8         modbus.o
    0x08002b0a   0x00000002   PAD
    0x08002b0c   0x00000010   Code   RO          302    i.modbus_init       modbus.o
    0x08002b1c   0x0000003c   Code   RO          303    i.modbus_on_rtu     modbus.o
    0x08002b58   0x00000068   Code   RO          304    i.modbus_response_echo  modbus.o
    0x08002bc0   0x00000038   Code   RO          305    i.modbus_response_error  modbus.o
    0x08002bf8   0x00000040   Code   RO           25    i.on_timeout        ai_control.o
    0x08002c38   0x00000010   Code   RO          251    i.rs485_recieve_enable  dma_usart_idle.o
    0x08002c48   0x00000010   Code   RO          252    i.rs485_transmit_enable  dma_usart_idle.o
    0x08002c58   0x0000005c   Code   RO           26    i.save_data         ai_control.o
    0x08002cb4   0x0000005c   Code   RO           27    i.set_poll_freq     ai_control.o
    0x08002d10   0x00000038   Code   RO           28    i.set_poll_params   ai_control.o
    0x08002d48   0x00000090   Code   RO          306    i.set_poll_params_reg  modbus.o
    0x08002dd8   0x00000048   Code   RO           29    i.start_adc_conversion  ai_control.o
    0x08002e20   0x00000068   Code   RO           30    i.switch_relay      ai_control.o
    0x08002e88   0x00000010   Data   RO          616    .constdata          system_stm32f4xx.o
    0x08002e98   0x00000008   Data   RO          617    .constdata          system_stm32f4xx.o
    0x08002ea0   0x00000008   Data   RO         2597    .constdata          stm32f4xx_hal_dma.o
    0x08002ea8   0x00000020   Data   RO         3196    Region$$Table       anon$$obj.o


    Execution Region RW_IRAM1 (Base: 0x20000000, Size: 0x00000da0, Max: 0x00020000, ABSOLUTE, COMPRESSED[0x00000134])

    Base Addr    Size         Type   Attr      Idx    E Section Name        Object

    0x20000000   0x00000200   Data   RW          308    .data               modbus.o
    0x20000200   0x00000004   Data   RW          618    .data               system_stm32f4xx.o
    0x20000204   0x0000000c   Data   RW         3022    .data               stm32f4xx_hal.o
    0x20000210   0x000002ae   Zero   RW           31    .bss                ai_control.o
    0x200004be   0x00000101   Zero   RW          307    .bss                modbus.o
    0x200005bf   0x00000001   PAD
    0x200005c0   0x0000025f   Zero   RW          389    .bss                main.o
    0x2000081f   0x00000001   PAD
    0x20000820   0x00000060   Zero   RW          390    .bss                main.o
    0x20000880   0x000000ff   Zero   RW          391    .bss                main.o
    0x2000097f   0x00000001   PAD
    0x20000980   0x00000020   Zero   RW         2296    .bss                stm32f4xx_hal_flash.o
    0x200009a0   0x00000400   Zero   RW            1    STACK               startup_stm32f407xx.o


==============================================================================

Image component sizes


      Code (inc. data)   RO Data    RW Data    ZI Data      Debug   Object Name

      1028        214          0          0        686     713911   ai_control.o
       164         20          0          0          0       2705   dma_usart_idle.o
       722         74          0          0        958       4452   main.o
       866         58          0        512        257       8056   modbus.o
        36          8        392          0       1024        820   startup_stm32f407xx.o
       144         24          0         12          0       3813   stm32f4xx_hal.o
      1236         48          0          0          0       6404   stm32f4xx_hal_adc.o
         2          0          0          0          0        953   stm32f4xx_hal_adc_ex.o
       228         14          0          0          0      31573   stm32f4xx_hal_cortex.o
       948         16          8          0          0       5654   stm32f4xx_hal_dma.o
       516         66          0          0         32       5978   stm32f4xx_hal_flash.o
        80          6          0          0          0        633   stm32f4xx_hal_flash_ex.o
       442         44          0          0          0       2152   stm32f4xx_hal_gpio.o
       556         86          0          0          0       2978   stm32f4xx_hal_msp.o
      1272         82          0          0          0       5308   stm32f4xx_hal_rcc.o
       680         44          0          0          0       7314   stm32f4xx_hal_tim.o
        84          0          0          0          0       2294   stm32f4xx_hal_tim_ex.o
      1844         42          0          0          0      12818   stm32f4xx_hal_uart.o
       150         30          0          0          0       6875   stm32f4xx_it.o
        84         18         24          4          0       1111   system_stm32f4xx.o

    ----------------------------------------------------------------------
     11104        894        456        528       2960     825802   Object Totals
         0          0         32          0          0          0   (incl. Generated)
        22          0          0          0          3          0   (incl. Padding)

    ----------------------------------------------------------------------

      Code (inc. data)   RO Data    RW Data    ZI Data      Debug   Library Member Name

        94          0          0          0          0          0   __dclz77c.o
         0          0          0          0          0          0   entry.o
         0          0          0          0          0          0   entry10a.o
         0          0          0          0          0          0   entry11a.o
         8          4          0          0          0          0   entry2.o
         4          0          0          0          0          0   entry5.o
         0          0          0          0          0          0   entry7b.o
         0          0          0          0          0          0   entry8b.o
         8          4          0          0          0          0   entry9a.o
        30          0          0          0          0          0   handlers.o
        36          8          0          0          0         68   init.o
        30          0          0          0          0         68   llshl.o
        32          0          0          0          0         68   llushr.o
        36          0          0          0          0         68   memcpya.o
        36          0          0          0          0        108   memseta.o
        98          0          0          0          0         92   uldiv.o

    ----------------------------------------------------------------------
       416         16          0          0          0        472   Library Totals
         4          0          0          0          0          0   (incl. Padding)

    ----------------------------------------------------------------------

      Code (inc. data)   RO Data    RW Data    ZI Data      Debug   Library Name

       412         16          0          0          0        472   mc_w.l

    ----------------------------------------------------------------------
       416         16          0          0          0        472   Library Totals

    ----------------------------------------------------------------------

==============================================================================


      Code (inc. data)   RO Data    RW Data    ZI Data      Debug   

     11520        910        456        528       2960     813202   Grand Totals
     11520        910        456        308       2960     813202   ELF Image Totals (compressed)
     11520        910        456        308          0          0   ROM Totals

==============================================================================

    Total RO  Size (Code + RO Data)                11976 (  11.70kB)
    Total RW  Size (RW Data + ZI Data)              3488 (   3.41kB)
    Total ROM Size (Code + RO Data + RW Data)      12284 (  12.00kB)

==============================================================================

